{
	"contracts/MyErrorsAndChecks.sol": {
		"MyErrorsAndChecks": {
			"abi": [
				{
					"inputs": [],
					"name": "maxAmount",
					"outputs": [
						{
							"internalType": "uint256",
							"name": "",
							"type": "uint256"
						}
					],
					"stateMutability": "view",
					"type": "function"
				},
				{
					"inputs": [
						{
							"internalType": "uint256",
							"name": "_x",
							"type": "uint256"
						},
						{
							"internalType": "uint256",
							"name": "_y",
							"type": "uint256"
						}
					],
					"name": "myPureRevertfunc",
					"outputs": [
						{
							"internalType": "uint256",
							"name": "xy",
							"type": "uint256"
						}
					],
					"stateMutability": "pure",
					"type": "function"
				},
				{
					"inputs": [
						{
							"internalType": "uint256",
							"name": "_x",
							"type": "uint256"
						},
						{
							"internalType": "uint256",
							"name": "_y",
							"type": "uint256"
						}
					],
					"name": "myfunc",
					"outputs": [
						{
							"internalType": "uint256",
							"name": "xy",
							"type": "uint256"
						}
					],
					"stateMutability": "view",
					"type": "function"
				},
				{
					"inputs": [],
					"name": "updateMax",
					"outputs": [],
					"stateMutability": "nonpayable",
					"type": "function"
				}
			],
			"devdoc": {
				"kind": "dev",
				"methods": {},
				"version": 1
			},
			"evm": {
				"assembly": "    /* \"contracts/MyErrorsAndChecks.sol\":103:694  contract MyErrorsAndChecks {... */\n  mstore(0x40, 0x80)\n    /* \"contracts/MyErrorsAndChecks.sol\":161:164  100 */\n  0x64\n    /* \"contracts/MyErrorsAndChecks.sol\":137:164  uint public maxAmount = 100 */\n  0x00\n  sstore\n    /* \"contracts/MyErrorsAndChecks.sol\":103:694  contract MyErrorsAndChecks {... */\n  callvalue\n  dup1\n  iszero\n  tag_1\n  jumpi\n  0x00\n  dup1\n  revert\ntag_1:\n  pop\n  dataSize(sub_0)\n  dup1\n  dataOffset(sub_0)\n  0x00\n  codecopy\n  0x00\n  return\nstop\n\nsub_0: assembly {\n        /* \"contracts/MyErrorsAndChecks.sol\":103:694  contract MyErrorsAndChecks {... */\n      mstore(0x40, 0x80)\n      callvalue\n      dup1\n      iszero\n      tag_1\n      jumpi\n      0x00\n      dup1\n      revert\n    tag_1:\n      pop\n      jumpi(tag_2, lt(calldatasize, 0x04))\n      shr(0xe0, calldataload(0x00))\n      dup1\n      0x1b2feada\n      eq\n      tag_3\n      jumpi\n      dup1\n      0x5f48f393\n      eq\n      tag_4\n      jumpi\n      dup1\n      0x8e29010f\n      eq\n      tag_5\n      jumpi\n      dup1\n      0xabbda657\n      eq\n      tag_6\n      jumpi\n    tag_2:\n      0x00\n      dup1\n      revert\n        /* \"contracts/MyErrorsAndChecks.sol\":236:407  function myfunc(uint256 _x, uint256 _y) public view returns(uint256 xy) {... */\n    tag_3:\n      tag_7\n      0x04\n      dup1\n      calldatasize\n      sub\n      dup2\n      add\n      swap1\n      tag_8\n      swap2\n      swap1\n      tag_9\n      jump\t// in\n    tag_8:\n      tag_10\n      jump\t// in\n    tag_7:\n      mload(0x40)\n      tag_11\n      swap2\n      swap1\n      tag_12\n      jump\t// in\n    tag_11:\n      mload(0x40)\n      dup1\n      swap2\n      sub\n      swap1\n      return\n        /* \"contracts/MyErrorsAndChecks.sol\":137:164  uint public maxAmount = 100 */\n    tag_4:\n      tag_13\n      tag_14\n      jump\t// in\n    tag_13:\n      mload(0x40)\n      tag_15\n      swap2\n      swap1\n      tag_12\n      jump\t// in\n    tag_15:\n      mload(0x40)\n      dup1\n      swap2\n      sub\n      swap1\n      return\n        /* \"contracts/MyErrorsAndChecks.sol\":413:605  function myPureRevertfunc(uint256 _x, uint256 _y) public pure returns(uint256 xy){... */\n    tag_5:\n      tag_16\n      0x04\n      dup1\n      calldatasize\n      sub\n      dup2\n      add\n      swap1\n      tag_17\n      swap2\n      swap1\n      tag_9\n      jump\t// in\n    tag_17:\n      tag_18\n      jump\t// in\n    tag_16:\n      mload(0x40)\n      tag_19\n      swap2\n      swap1\n      tag_12\n      jump\t// in\n    tag_19:\n      mload(0x40)\n      dup1\n      swap2\n      sub\n      swap1\n      return\n        /* \"contracts/MyErrorsAndChecks.sol\":171:230  function updateMax() public {... */\n    tag_6:\n      tag_20\n      tag_21\n      jump\t// in\n    tag_20:\n      stop\n        /* \"contracts/MyErrorsAndChecks.sol\":236:407  function myfunc(uint256 _x, uint256 _y) public view returns(uint256 xy) {... */\n    tag_10:\n        /* \"contracts/MyErrorsAndChecks.sol\":296:306  uint256 xy */\n      0x00\n        /* \"contracts/MyErrorsAndChecks.sol\":331:333  _y */\n      dup2\n        /* \"contracts/MyErrorsAndChecks.sol\":326:328  _x */\n      dup4\n        /* \"contracts/MyErrorsAndChecks.sol\":326:333  _x < _y */\n      lt\n        /* \"contracts/MyErrorsAndChecks.sol\":318:356  require(_x < _y, \"X is bigger than y\") */\n      tag_23\n      jumpi\n      mload(0x40)\n      0x08c379a000000000000000000000000000000000000000000000000000000000\n      dup2\n      mstore\n      0x04\n      add\n      tag_24\n      swap1\n      tag_25\n      jump\t// in\n    tag_24:\n      mload(0x40)\n      dup1\n      swap2\n      sub\n      swap1\n      revert\n    tag_23:\n        /* \"contracts/MyErrorsAndChecks.sol\":366:376  checkMax() */\n      tag_26\n        /* \"contracts/MyErrorsAndChecks.sol\":366:374  checkMax */\n      tag_27\n        /* \"contracts/MyErrorsAndChecks.sol\":366:376  checkMax() */\n      jump\t// in\n    tag_26:\n        /* \"contracts/MyErrorsAndChecks.sol\":398:400  _y */\n      dup2\n        /* \"contracts/MyErrorsAndChecks.sol\":393:395  _x */\n      dup4\n        /* \"contracts/MyErrorsAndChecks.sol\":393:400  _x + _y */\n      tag_28\n      swap2\n      swap1\n      tag_29\n      jump\t// in\n    tag_28:\n        /* \"contracts/MyErrorsAndChecks.sol\":386:400  return _x + _y */\n      swap1\n      pop\n        /* \"contracts/MyErrorsAndChecks.sol\":236:407  function myfunc(uint256 _x, uint256 _y) public view returns(uint256 xy) {... */\n      swap3\n      swap2\n      pop\n      pop\n      jump\t// out\n        /* \"contracts/MyErrorsAndChecks.sol\":137:164  uint public maxAmount = 100 */\n    tag_14:\n      sload(0x00)\n      dup2\n      jump\t// out\n        /* \"contracts/MyErrorsAndChecks.sol\":413:605  function myPureRevertfunc(uint256 _x, uint256 _y) public pure returns(uint256 xy){... */\n    tag_18:\n        /* \"contracts/MyErrorsAndChecks.sol\":483:493  uint256 xy */\n      0x00\n        /* \"contracts/MyErrorsAndChecks.sol\":530:532  10 */\n      0x0a\n        /* \"contracts/MyErrorsAndChecks.sol\":524:526  _x */\n      dup4\n        /* \"contracts/MyErrorsAndChecks.sol\":524:532  _x == 10 */\n      eq\n        /* \"contracts/MyErrorsAndChecks.sol\":520:575  if (_x == 10){... */\n      iszero\n      tag_31\n      jumpi\n        /* \"contracts/MyErrorsAndChecks.sol\":547:564  revert(\"X is 10\") */\n      mload(0x40)\n      0x08c379a000000000000000000000000000000000000000000000000000000000\n      dup2\n      mstore\n      0x04\n      add\n      tag_32\n      swap1\n      tag_33\n      jump\t// in\n    tag_32:\n      mload(0x40)\n      dup1\n      swap2\n      sub\n      swap1\n      revert\n        /* \"contracts/MyErrorsAndChecks.sol\":520:575  if (_x == 10){... */\n    tag_31:\n        /* \"contracts/MyErrorsAndChecks.sol\":596:598  _y */\n      dup2\n        /* \"contracts/MyErrorsAndChecks.sol\":591:593  _x */\n      dup4\n        /* \"contracts/MyErrorsAndChecks.sol\":591:598  _x + _y */\n      tag_34\n      swap2\n      swap1\n      tag_29\n      jump\t// in\n    tag_34:\n        /* \"contracts/MyErrorsAndChecks.sol\":584:598  return _x + _y */\n      swap1\n      pop\n        /* \"contracts/MyErrorsAndChecks.sol\":413:605  function myPureRevertfunc(uint256 _x, uint256 _y) public pure returns(uint256 xy){... */\n      swap3\n      swap2\n      pop\n      pop\n      jump\t// out\n        /* \"contracts/MyErrorsAndChecks.sol\":171:230  function updateMax() public {... */\n    tag_21:\n        /* \"contracts/MyErrorsAndChecks.sol\":221:223  50 */\n      0x32\n        /* \"contracts/MyErrorsAndChecks.sol\":209:218  maxAmount */\n      0x00\n        /* \"contracts/MyErrorsAndChecks.sol\":209:223  maxAmount = 50 */\n      dup2\n      swap1\n      sstore\n      pop\n        /* \"contracts/MyErrorsAndChecks.sol\":171:230  function updateMax() public {... */\n      jump\t// out\n        /* \"contracts/MyErrorsAndChecks.sol\":611:686  function checkMax() internal view {... */\n    tag_27:\n        /* \"contracts/MyErrorsAndChecks.sol\":675:678  100 */\n      0x64\n        /* \"contracts/MyErrorsAndChecks.sol\":662:671  maxAmount */\n      sload(0x00)\n        /* \"contracts/MyErrorsAndChecks.sol\":662:678  maxAmount == 100 */\n      eq\n        /* \"contracts/MyErrorsAndChecks.sol\":655:679  assert(maxAmount == 100) */\n      tag_37\n      jumpi\n      tag_38\n      tag_39\n      jump\t// in\n    tag_38:\n    tag_37:\n        /* \"contracts/MyErrorsAndChecks.sol\":611:686  function checkMax() internal view {... */\n      jump\t// out\n        /* \"#utility.yul\":7:146   */\n    tag_41:\n        /* \"#utility.yul\":53:58   */\n      0x00\n        /* \"#utility.yul\":91:97   */\n      dup2\n        /* \"#utility.yul\":78:98   */\n      calldataload\n        /* \"#utility.yul\":69:98   */\n      swap1\n      pop\n        /* \"#utility.yul\":107:140   */\n      tag_43\n        /* \"#utility.yul\":134:139   */\n      dup2\n        /* \"#utility.yul\":107:140   */\n      tag_44\n      jump\t// in\n    tag_43:\n        /* \"#utility.yul\":7:146   */\n      swap3\n      swap2\n      pop\n      pop\n      jump\t// out\n        /* \"#utility.yul\":152:626   */\n    tag_9:\n        /* \"#utility.yul\":220:226   */\n      0x00\n        /* \"#utility.yul\":228:234   */\n      dup1\n        /* \"#utility.yul\":277:279   */\n      0x40\n        /* \"#utility.yul\":265:274   */\n      dup4\n        /* \"#utility.yul\":256:263   */\n      dup6\n        /* \"#utility.yul\":252:275   */\n      sub\n        /* \"#utility.yul\":248:280   */\n      slt\n        /* \"#utility.yul\":245:364   */\n      iszero\n      tag_46\n      jumpi\n        /* \"#utility.yul\":283:362   */\n      tag_47\n      tag_48\n      jump\t// in\n    tag_47:\n        /* \"#utility.yul\":245:364   */\n    tag_46:\n        /* \"#utility.yul\":403:404   */\n      0x00\n        /* \"#utility.yul\":428:481   */\n      tag_49\n        /* \"#utility.yul\":473:480   */\n      dup6\n        /* \"#utility.yul\":464:470   */\n      dup3\n        /* \"#utility.yul\":453:462   */\n      dup7\n        /* \"#utility.yul\":449:471   */\n      add\n        /* \"#utility.yul\":428:481   */\n      tag_41\n      jump\t// in\n    tag_49:\n        /* \"#utility.yul\":418:481   */\n      swap3\n      pop\n        /* \"#utility.yul\":374:491   */\n      pop\n        /* \"#utility.yul\":530:532   */\n      0x20\n        /* \"#utility.yul\":556:609   */\n      tag_50\n        /* \"#utility.yul\":601:608   */\n      dup6\n        /* \"#utility.yul\":592:598   */\n      dup3\n        /* \"#utility.yul\":581:590   */\n      dup7\n        /* \"#utility.yul\":577:599   */\n      add\n        /* \"#utility.yul\":556:609   */\n      tag_41\n      jump\t// in\n    tag_50:\n        /* \"#utility.yul\":546:609   */\n      swap2\n      pop\n        /* \"#utility.yul\":501:619   */\n      pop\n        /* \"#utility.yul\":152:626   */\n      swap3\n      pop\n      swap3\n      swap1\n      pop\n      jump\t// out\n        /* \"#utility.yul\":632:997   */\n    tag_51:\n        /* \"#utility.yul\":774:777   */\n      0x00\n        /* \"#utility.yul\":795:861   */\n      tag_53\n        /* \"#utility.yul\":859:860   */\n      0x07\n        /* \"#utility.yul\":854:857   */\n      dup4\n        /* \"#utility.yul\":795:861   */\n      tag_54\n      jump\t// in\n    tag_53:\n        /* \"#utility.yul\":788:861   */\n      swap2\n      pop\n        /* \"#utility.yul\":870:963   */\n      tag_55\n        /* \"#utility.yul\":959:962   */\n      dup3\n        /* \"#utility.yul\":870:963   */\n      tag_56\n      jump\t// in\n    tag_55:\n        /* \"#utility.yul\":988:990   */\n      0x20\n        /* \"#utility.yul\":983:986   */\n      dup3\n        /* \"#utility.yul\":979:991   */\n      add\n        /* \"#utility.yul\":972:991   */\n      swap1\n      pop\n        /* \"#utility.yul\":632:997   */\n      swap2\n      swap1\n      pop\n      jump\t// out\n        /* \"#utility.yul\":1003:1369   */\n    tag_57:\n        /* \"#utility.yul\":1145:1148   */\n      0x00\n        /* \"#utility.yul\":1166:1233   */\n      tag_59\n        /* \"#utility.yul\":1230:1232   */\n      0x12\n        /* \"#utility.yul\":1225:1228   */\n      dup4\n        /* \"#utility.yul\":1166:1233   */\n      tag_54\n      jump\t// in\n    tag_59:\n        /* \"#utility.yul\":1159:1233   */\n      swap2\n      pop\n        /* \"#utility.yul\":1242:1335   */\n      tag_60\n        /* \"#utility.yul\":1331:1334   */\n      dup3\n        /* \"#utility.yul\":1242:1335   */\n      tag_61\n      jump\t// in\n    tag_60:\n        /* \"#utility.yul\":1360:1362   */\n      0x20\n        /* \"#utility.yul\":1355:1358   */\n      dup3\n        /* \"#utility.yul\":1351:1363   */\n      add\n        /* \"#utility.yul\":1344:1363   */\n      swap1\n      pop\n        /* \"#utility.yul\":1003:1369   */\n      swap2\n      swap1\n      pop\n      jump\t// out\n        /* \"#utility.yul\":1375:1493   */\n    tag_62:\n        /* \"#utility.yul\":1462:1486   */\n      tag_64\n        /* \"#utility.yul\":1480:1485   */\n      dup2\n        /* \"#utility.yul\":1462:1486   */\n      tag_65\n      jump\t// in\n    tag_64:\n        /* \"#utility.yul\":1457:1460   */\n      dup3\n        /* \"#utility.yul\":1450:1487   */\n      mstore\n        /* \"#utility.yul\":1375:1493   */\n      pop\n      pop\n      jump\t// out\n        /* \"#utility.yul\":1499:1918   */\n    tag_33:\n        /* \"#utility.yul\":1665:1669   */\n      0x00\n        /* \"#utility.yul\":1703:1705   */\n      0x20\n        /* \"#utility.yul\":1692:1701   */\n      dup3\n        /* \"#utility.yul\":1688:1706   */\n      add\n        /* \"#utility.yul\":1680:1706   */\n      swap1\n      pop\n        /* \"#utility.yul\":1752:1761   */\n      dup2\n        /* \"#utility.yul\":1746:1750   */\n      dup2\n        /* \"#utility.yul\":1742:1762   */\n      sub\n        /* \"#utility.yul\":1738:1739   */\n      0x00\n        /* \"#utility.yul\":1727:1736   */\n      dup4\n        /* \"#utility.yul\":1723:1740   */\n      add\n        /* \"#utility.yul\":1716:1763   */\n      mstore\n        /* \"#utility.yul\":1780:1911   */\n      tag_67\n        /* \"#utility.yul\":1906:1910   */\n      dup2\n        /* \"#utility.yul\":1780:1911   */\n      tag_51\n      jump\t// in\n    tag_67:\n        /* \"#utility.yul\":1772:1911   */\n      swap1\n      pop\n        /* \"#utility.yul\":1499:1918   */\n      swap2\n      swap1\n      pop\n      jump\t// out\n        /* \"#utility.yul\":1924:2343   */\n    tag_25:\n        /* \"#utility.yul\":2090:2094   */\n      0x00\n        /* \"#utility.yul\":2128:2130   */\n      0x20\n        /* \"#utility.yul\":2117:2126   */\n      dup3\n        /* \"#utility.yul\":2113:2131   */\n      add\n        /* \"#utility.yul\":2105:2131   */\n      swap1\n      pop\n        /* \"#utility.yul\":2177:2186   */\n      dup2\n        /* \"#utility.yul\":2171:2175   */\n      dup2\n        /* \"#utility.yul\":2167:2187   */\n      sub\n        /* \"#utility.yul\":2163:2164   */\n      0x00\n        /* \"#utility.yul\":2152:2161   */\n      dup4\n        /* \"#utility.yul\":2148:2165   */\n      add\n        /* \"#utility.yul\":2141:2188   */\n      mstore\n        /* \"#utility.yul\":2205:2336   */\n      tag_69\n        /* \"#utility.yul\":2331:2335   */\n      dup2\n        /* \"#utility.yul\":2205:2336   */\n      tag_57\n      jump\t// in\n    tag_69:\n        /* \"#utility.yul\":2197:2336   */\n      swap1\n      pop\n        /* \"#utility.yul\":1924:2343   */\n      swap2\n      swap1\n      pop\n      jump\t// out\n        /* \"#utility.yul\":2349:2571   */\n    tag_12:\n        /* \"#utility.yul\":2442:2446   */\n      0x00\n        /* \"#utility.yul\":2480:2482   */\n      0x20\n        /* \"#utility.yul\":2469:2478   */\n      dup3\n        /* \"#utility.yul\":2465:2483   */\n      add\n        /* \"#utility.yul\":2457:2483   */\n      swap1\n      pop\n        /* \"#utility.yul\":2493:2564   */\n      tag_71\n        /* \"#utility.yul\":2561:2562   */\n      0x00\n        /* \"#utility.yul\":2550:2559   */\n      dup4\n        /* \"#utility.yul\":2546:2563   */\n      add\n        /* \"#utility.yul\":2537:2543   */\n      dup5\n        /* \"#utility.yul\":2493:2564   */\n      tag_62\n      jump\t// in\n    tag_71:\n        /* \"#utility.yul\":2349:2571   */\n      swap3\n      swap2\n      pop\n      pop\n      jump\t// out\n        /* \"#utility.yul\":2658:2827   */\n    tag_54:\n        /* \"#utility.yul\":2742:2753   */\n      0x00\n        /* \"#utility.yul\":2776:2782   */\n      dup3\n        /* \"#utility.yul\":2771:2774   */\n      dup3\n        /* \"#utility.yul\":2764:2783   */\n      mstore\n        /* \"#utility.yul\":2816:2820   */\n      0x20\n        /* \"#utility.yul\":2811:2814   */\n      dup3\n        /* \"#utility.yul\":2807:2821   */\n      add\n        /* \"#utility.yul\":2792:2821   */\n      swap1\n      pop\n        /* \"#utility.yul\":2658:2827   */\n      swap3\n      swap2\n      pop\n      pop\n      jump\t// out\n        /* \"#utility.yul\":2833:3138   */\n    tag_29:\n        /* \"#utility.yul\":2873:2876   */\n      0x00\n        /* \"#utility.yul\":2892:2912   */\n      tag_76\n        /* \"#utility.yul\":2910:2911   */\n      dup3\n        /* \"#utility.yul\":2892:2912   */\n      tag_65\n      jump\t// in\n    tag_76:\n        /* \"#utility.yul\":2887:2912   */\n      swap2\n      pop\n        /* \"#utility.yul\":2926:2946   */\n      tag_77\n        /* \"#utility.yul\":2944:2945   */\n      dup4\n        /* \"#utility.yul\":2926:2946   */\n      tag_65\n      jump\t// in\n    tag_77:\n        /* \"#utility.yul\":2921:2946   */\n      swap3\n      pop\n        /* \"#utility.yul\":3080:3081   */\n      dup3\n        /* \"#utility.yul\":3012:3078   */\n      0xffffffffffffffffffffffffffffffffffffffffffffffffffffffffffffffff\n        /* \"#utility.yul\":3008:3082   */\n      sub\n        /* \"#utility.yul\":3005:3006   */\n      dup3\n        /* \"#utility.yul\":3002:3083   */\n      gt\n        /* \"#utility.yul\":2999:3106   */\n      iszero\n      tag_78\n      jumpi\n        /* \"#utility.yul\":3086:3104   */\n      tag_79\n      tag_80\n      jump\t// in\n    tag_79:\n        /* \"#utility.yul\":2999:3106   */\n    tag_78:\n        /* \"#utility.yul\":3130:3131   */\n      dup3\n        /* \"#utility.yul\":3127:3128   */\n      dup3\n        /* \"#utility.yul\":3123:3132   */\n      add\n        /* \"#utility.yul\":3116:3132   */\n      swap1\n      pop\n        /* \"#utility.yul\":2833:3138   */\n      swap3\n      swap2\n      pop\n      pop\n      jump\t// out\n        /* \"#utility.yul\":3144:3221   */\n    tag_65:\n        /* \"#utility.yul\":3181:3188   */\n      0x00\n        /* \"#utility.yul\":3210:3215   */\n      dup2\n        /* \"#utility.yul\":3199:3215   */\n      swap1\n      pop\n        /* \"#utility.yul\":3144:3221   */\n      swap2\n      swap1\n      pop\n      jump\t// out\n        /* \"#utility.yul\":3227:3407   */\n    tag_39:\n        /* \"#utility.yul\":3275:3352   */\n      0x4e487b7100000000000000000000000000000000000000000000000000000000\n        /* \"#utility.yul\":3272:3273   */\n      0x00\n        /* \"#utility.yul\":3265:3353   */\n      mstore\n        /* \"#utility.yul\":3372:3376   */\n      0x01\n        /* \"#utility.yul\":3369:3370   */\n      0x04\n        /* \"#utility.yul\":3362:3377   */\n      mstore\n        /* \"#utility.yul\":3396:3400   */\n      0x24\n        /* \"#utility.yul\":3393:3394   */\n      0x00\n        /* \"#utility.yul\":3386:3401   */\n      revert\n        /* \"#utility.yul\":3413:3593   */\n    tag_80:\n        /* \"#utility.yul\":3461:3538   */\n      0x4e487b7100000000000000000000000000000000000000000000000000000000\n        /* \"#utility.yul\":3458:3459   */\n      0x00\n        /* \"#utility.yul\":3451:3539   */\n      mstore\n        /* \"#utility.yul\":3558:3562   */\n      0x11\n        /* \"#utility.yul\":3555:3556   */\n      0x04\n        /* \"#utility.yul\":3548:3563   */\n      mstore\n        /* \"#utility.yul\":3582:3586   */\n      0x24\n        /* \"#utility.yul\":3579:3580   */\n      0x00\n        /* \"#utility.yul\":3572:3587   */\n      revert\n        /* \"#utility.yul\":3722:3839   */\n    tag_48:\n        /* \"#utility.yul\":3831:3832   */\n      0x00\n        /* \"#utility.yul\":3828:3829   */\n      dup1\n        /* \"#utility.yul\":3821:3833   */\n      revert\n        /* \"#utility.yul\":3845:4002   */\n    tag_56:\n        /* \"#utility.yul\":3985:3994   */\n      0x5820697320313000000000000000000000000000000000000000000000000000\n        /* \"#utility.yul\":3981:3982   */\n      0x00\n        /* \"#utility.yul\":3973:3979   */\n      dup3\n        /* \"#utility.yul\":3969:3983   */\n      add\n        /* \"#utility.yul\":3962:3995   */\n      mstore\n        /* \"#utility.yul\":3845:4002   */\n      pop\n      jump\t// out\n        /* \"#utility.yul\":4008:4176   */\n    tag_61:\n        /* \"#utility.yul\":4148:4168   */\n      0x5820697320626967676572207468616e20790000000000000000000000000000\n        /* \"#utility.yul\":4144:4145   */\n      0x00\n        /* \"#utility.yul\":4136:4142   */\n      dup3\n        /* \"#utility.yul\":4132:4146   */\n      add\n        /* \"#utility.yul\":4125:4169   */\n      mstore\n        /* \"#utility.yul\":4008:4176   */\n      pop\n      jump\t// out\n        /* \"#utility.yul\":4182:4304   */\n    tag_44:\n        /* \"#utility.yul\":4255:4279   */\n      tag_90\n        /* \"#utility.yul\":4273:4278   */\n      dup2\n        /* \"#utility.yul\":4255:4279   */\n      tag_65\n      jump\t// in\n    tag_90:\n        /* \"#utility.yul\":4248:4253   */\n      dup2\n        /* \"#utility.yul\":4245:4280   */\n      eq\n        /* \"#utility.yul\":4235:4298   */\n      tag_91\n      jumpi\n        /* \"#utility.yul\":4294:4295   */\n      0x00\n        /* \"#utility.yul\":4291:4292   */\n      dup1\n        /* \"#utility.yul\":4284:4296   */\n      revert\n        /* \"#utility.yul\":4235:4298   */\n    tag_91:\n        /* \"#utility.yul\":4182:4304   */\n      pop\n      jump\t// out\n\n    auxdata: 0xa2646970667358221220912f96ba38e89f04b2981874208dbe17e332e207222fadc45c80848f533c69ee64736f6c63430008070033\n}\n",
				"bytecode": {
					"linkReferences": {},
					"object": "6080604052606460005534801561001557600080fd5b50610430806100256000396000f3fe608060405234801561001057600080fd5b506004361061004c5760003560e01c80631b2feada146100515780635f48f393146100815780638e29010f1461009f578063abbda657146100cf575b600080fd5b61006b600480360381019061006691906101cd565b6100d9565b60405161007891906102a2565b60405180910390f35b610089610139565b60405161009691906102a2565b60405180910390f35b6100b960048036038101906100b491906101cd565b61013f565b6040516100c691906102a2565b60405180910390f35b6100d7610199565b005b600081831061011d576040517f08c379a000000000000000000000000000000000000000000000000000000000815260040161011490610282565b60405180910390fd5b6101256101a3565b818361013191906102ce565b905092915050565b60005481565b6000600a831415610185576040517f08c379a000000000000000000000000000000000000000000000000000000000815260040161017c90610262565b60405180910390fd5b818361019191906102ce565b905092915050565b6032600081905550565b6064600054146101b6576101b561032e565b5b565b6000813590506101c7816103e3565b92915050565b600080604083850312156101e4576101e361038c565b5b60006101f2858286016101b8565b9250506020610203858286016101b8565b9150509250929050565b600061021a6007836102bd565b915061022582610391565b602082019050919050565b600061023d6012836102bd565b9150610248826103ba565b602082019050919050565b61025c81610324565b82525050565b6000602082019050818103600083015261027b8161020d565b9050919050565b6000602082019050818103600083015261029b81610230565b9050919050565b60006020820190506102b76000830184610253565b92915050565b600082825260208201905092915050565b60006102d982610324565b91506102e483610324565b9250827fffffffffffffffffffffffffffffffffffffffffffffffffffffffffffffffff038211156103195761031861035d565b5b828201905092915050565b6000819050919050565b7f4e487b7100000000000000000000000000000000000000000000000000000000600052600160045260246000fd5b7f4e487b7100000000000000000000000000000000000000000000000000000000600052601160045260246000fd5b600080fd5b7f5820697320313000000000000000000000000000000000000000000000000000600082015250565b7f5820697320626967676572207468616e20790000000000000000000000000000600082015250565b6103ec81610324565b81146103f757600080fd5b5056fea2646970667358221220912f96ba38e89f04b2981874208dbe17e332e207222fadc45c80848f533c69ee64736f6c63430008070033",
					"opcodes": "PUSH1 0x80 PUSH1 0x40 MSTORE PUSH1 0x64 PUSH1 0x0 SSTORE CALLVALUE DUP1 ISZERO PUSH2 0x15 JUMPI PUSH1 0x0 DUP1 REVERT JUMPDEST POP PUSH2 0x430 DUP1 PUSH2 0x25 PUSH1 0x0 CODECOPY PUSH1 0x0 RETURN INVALID PUSH1 0x80 PUSH1 0x40 MSTORE CALLVALUE DUP1 ISZERO PUSH2 0x10 JUMPI PUSH1 0x0 DUP1 REVERT JUMPDEST POP PUSH1 0x4 CALLDATASIZE LT PUSH2 0x4C JUMPI PUSH1 0x0 CALLDATALOAD PUSH1 0xE0 SHR DUP1 PUSH4 0x1B2FEADA EQ PUSH2 0x51 JUMPI DUP1 PUSH4 0x5F48F393 EQ PUSH2 0x81 JUMPI DUP1 PUSH4 0x8E29010F EQ PUSH2 0x9F JUMPI DUP1 PUSH4 0xABBDA657 EQ PUSH2 0xCF JUMPI JUMPDEST PUSH1 0x0 DUP1 REVERT JUMPDEST PUSH2 0x6B PUSH1 0x4 DUP1 CALLDATASIZE SUB DUP2 ADD SWAP1 PUSH2 0x66 SWAP2 SWAP1 PUSH2 0x1CD JUMP JUMPDEST PUSH2 0xD9 JUMP JUMPDEST PUSH1 0x40 MLOAD PUSH2 0x78 SWAP2 SWAP1 PUSH2 0x2A2 JUMP JUMPDEST PUSH1 0x40 MLOAD DUP1 SWAP2 SUB SWAP1 RETURN JUMPDEST PUSH2 0x89 PUSH2 0x139 JUMP JUMPDEST PUSH1 0x40 MLOAD PUSH2 0x96 SWAP2 SWAP1 PUSH2 0x2A2 JUMP JUMPDEST PUSH1 0x40 MLOAD DUP1 SWAP2 SUB SWAP1 RETURN JUMPDEST PUSH2 0xB9 PUSH1 0x4 DUP1 CALLDATASIZE SUB DUP2 ADD SWAP1 PUSH2 0xB4 SWAP2 SWAP1 PUSH2 0x1CD JUMP JUMPDEST PUSH2 0x13F JUMP JUMPDEST PUSH1 0x40 MLOAD PUSH2 0xC6 SWAP2 SWAP1 PUSH2 0x2A2 JUMP JUMPDEST PUSH1 0x40 MLOAD DUP1 SWAP2 SUB SWAP1 RETURN JUMPDEST PUSH2 0xD7 PUSH2 0x199 JUMP JUMPDEST STOP JUMPDEST PUSH1 0x0 DUP2 DUP4 LT PUSH2 0x11D JUMPI PUSH1 0x40 MLOAD PUSH32 0x8C379A000000000000000000000000000000000000000000000000000000000 DUP2 MSTORE PUSH1 0x4 ADD PUSH2 0x114 SWAP1 PUSH2 0x282 JUMP JUMPDEST PUSH1 0x40 MLOAD DUP1 SWAP2 SUB SWAP1 REVERT JUMPDEST PUSH2 0x125 PUSH2 0x1A3 JUMP JUMPDEST DUP2 DUP4 PUSH2 0x131 SWAP2 SWAP1 PUSH2 0x2CE JUMP JUMPDEST SWAP1 POP SWAP3 SWAP2 POP POP JUMP JUMPDEST PUSH1 0x0 SLOAD DUP2 JUMP JUMPDEST PUSH1 0x0 PUSH1 0xA DUP4 EQ ISZERO PUSH2 0x185 JUMPI PUSH1 0x40 MLOAD PUSH32 0x8C379A000000000000000000000000000000000000000000000000000000000 DUP2 MSTORE PUSH1 0x4 ADD PUSH2 0x17C SWAP1 PUSH2 0x262 JUMP JUMPDEST PUSH1 0x40 MLOAD DUP1 SWAP2 SUB SWAP1 REVERT JUMPDEST DUP2 DUP4 PUSH2 0x191 SWAP2 SWAP1 PUSH2 0x2CE JUMP JUMPDEST SWAP1 POP SWAP3 SWAP2 POP POP JUMP JUMPDEST PUSH1 0x32 PUSH1 0x0 DUP2 SWAP1 SSTORE POP JUMP JUMPDEST PUSH1 0x64 PUSH1 0x0 SLOAD EQ PUSH2 0x1B6 JUMPI PUSH2 0x1B5 PUSH2 0x32E JUMP JUMPDEST JUMPDEST JUMP JUMPDEST PUSH1 0x0 DUP2 CALLDATALOAD SWAP1 POP PUSH2 0x1C7 DUP2 PUSH2 0x3E3 JUMP JUMPDEST SWAP3 SWAP2 POP POP JUMP JUMPDEST PUSH1 0x0 DUP1 PUSH1 0x40 DUP4 DUP6 SUB SLT ISZERO PUSH2 0x1E4 JUMPI PUSH2 0x1E3 PUSH2 0x38C JUMP JUMPDEST JUMPDEST PUSH1 0x0 PUSH2 0x1F2 DUP6 DUP3 DUP7 ADD PUSH2 0x1B8 JUMP JUMPDEST SWAP3 POP POP PUSH1 0x20 PUSH2 0x203 DUP6 DUP3 DUP7 ADD PUSH2 0x1B8 JUMP JUMPDEST SWAP2 POP POP SWAP3 POP SWAP3 SWAP1 POP JUMP JUMPDEST PUSH1 0x0 PUSH2 0x21A PUSH1 0x7 DUP4 PUSH2 0x2BD JUMP JUMPDEST SWAP2 POP PUSH2 0x225 DUP3 PUSH2 0x391 JUMP JUMPDEST PUSH1 0x20 DUP3 ADD SWAP1 POP SWAP2 SWAP1 POP JUMP JUMPDEST PUSH1 0x0 PUSH2 0x23D PUSH1 0x12 DUP4 PUSH2 0x2BD JUMP JUMPDEST SWAP2 POP PUSH2 0x248 DUP3 PUSH2 0x3BA JUMP JUMPDEST PUSH1 0x20 DUP3 ADD SWAP1 POP SWAP2 SWAP1 POP JUMP JUMPDEST PUSH2 0x25C DUP2 PUSH2 0x324 JUMP JUMPDEST DUP3 MSTORE POP POP JUMP JUMPDEST PUSH1 0x0 PUSH1 0x20 DUP3 ADD SWAP1 POP DUP2 DUP2 SUB PUSH1 0x0 DUP4 ADD MSTORE PUSH2 0x27B DUP2 PUSH2 0x20D JUMP JUMPDEST SWAP1 POP SWAP2 SWAP1 POP JUMP JUMPDEST PUSH1 0x0 PUSH1 0x20 DUP3 ADD SWAP1 POP DUP2 DUP2 SUB PUSH1 0x0 DUP4 ADD MSTORE PUSH2 0x29B DUP2 PUSH2 0x230 JUMP JUMPDEST SWAP1 POP SWAP2 SWAP1 POP JUMP JUMPDEST PUSH1 0x0 PUSH1 0x20 DUP3 ADD SWAP1 POP PUSH2 0x2B7 PUSH1 0x0 DUP4 ADD DUP5 PUSH2 0x253 JUMP JUMPDEST SWAP3 SWAP2 POP POP JUMP JUMPDEST PUSH1 0x0 DUP3 DUP3 MSTORE PUSH1 0x20 DUP3 ADD SWAP1 POP SWAP3 SWAP2 POP POP JUMP JUMPDEST PUSH1 0x0 PUSH2 0x2D9 DUP3 PUSH2 0x324 JUMP JUMPDEST SWAP2 POP PUSH2 0x2E4 DUP4 PUSH2 0x324 JUMP JUMPDEST SWAP3 POP DUP3 PUSH32 0xFFFFFFFFFFFFFFFFFFFFFFFFFFFFFFFFFFFFFFFFFFFFFFFFFFFFFFFFFFFFFFFF SUB DUP3 GT ISZERO PUSH2 0x319 JUMPI PUSH2 0x318 PUSH2 0x35D JUMP JUMPDEST JUMPDEST DUP3 DUP3 ADD SWAP1 POP SWAP3 SWAP2 POP POP JUMP JUMPDEST PUSH1 0x0 DUP2 SWAP1 POP SWAP2 SWAP1 POP JUMP JUMPDEST PUSH32 0x4E487B7100000000000000000000000000000000000000000000000000000000 PUSH1 0x0 MSTORE PUSH1 0x1 PUSH1 0x4 MSTORE PUSH1 0x24 PUSH1 0x0 REVERT JUMPDEST PUSH32 0x4E487B7100000000000000000000000000000000000000000000000000000000 PUSH1 0x0 MSTORE PUSH1 0x11 PUSH1 0x4 MSTORE PUSH1 0x24 PUSH1 0x0 REVERT JUMPDEST PUSH1 0x0 DUP1 REVERT JUMPDEST PUSH32 0x5820697320313000000000000000000000000000000000000000000000000000 PUSH1 0x0 DUP3 ADD MSTORE POP JUMP JUMPDEST PUSH32 0x5820697320626967676572207468616E20790000000000000000000000000000 PUSH1 0x0 DUP3 ADD MSTORE POP JUMP JUMPDEST PUSH2 0x3EC DUP2 PUSH2 0x324 JUMP JUMPDEST DUP2 EQ PUSH2 0x3F7 JUMPI PUSH1 0x0 DUP1 REVERT JUMPDEST POP JUMP INVALID LOG2 PUSH5 0x6970667358 0x22 SLT KECCAK256 SWAP2 0x2F SWAP7 0xBA CODESIZE 0xE8 SWAP16 DIV 0xB2 SWAP9 XOR PUSH21 0x208DBE17E332E207222FADC45C80848F533C69EE64 PUSH20 0x6F6C634300080700330000000000000000000000 "
				},
				"gasEstimates": {
					"creation": {
						"codeDepositCost": "214400",
						"executionCost": "22363",
						"totalCost": "236763"
					},
					"external": {
						"maxAmount()": "2429",
						"myPureRevertfunc(uint256,uint256)": "infinite",
						"myfunc(uint256,uint256)": "infinite",
						"updateMax()": "22302"
					},
					"internal": {
						"checkMax()": "2168"
					}
				},
				"methodIdentifiers": {
					"maxAmount()": "5f48f393",
					"myPureRevertfunc(uint256,uint256)": "8e29010f",
					"myfunc(uint256,uint256)": "1b2feada",
					"updateMax()": "abbda657"
				}
			},
			"storageLayout": {
				"storage": [
					{
						"astId": 4,
						"contract": "contracts/MyErrorsAndChecks.sol:MyErrorsAndChecks",
						"label": "maxAmount",
						"offset": 0,
						"slot": "0",
						"type": "t_uint256"
					}
				],
				"types": {
					"t_uint256": {
						"encoding": "inplace",
						"label": "uint256",
						"numberOfBytes": "32"
					}
				}
			},
			"userdoc": {
				"kind": "user",
				"methods": {},
				"version": 1
			}
		}
	}
}