{
	"data": {
		"bytecode": {
			"linkReferences": {},
			"object": "608060405260016000806101000a81548160ff021916908360ff1602179055506002600060016101000a81548160ff021916908360ff1602179055506003600060026101000a81548160ff021916908360ff16021790555034801561006357600080fd5b50610292806100736000396000f3fe608060405234801561001057600080fd5b50600436106100575760003560e01c80630d28e34a1461005c57806323eed3c5146100665780636ade9da614610070578063ade7621d1461007a578063af7b5baa14610084575b600080fd5b61006461008e565b005b61006e610090565b005b610078610092565b005b6100826100d5565b005b61008c6100d7565b005b565b565b600060019054906101000a900460ff1660008054906101000a900460ff166100ba919061018b565b6000806101000a81548160ff021916908360ff160217905550565b565b600060029054906101000a900460ff16600060019054906101000a900460ff1660008054906101000a900460ff1661010f919061018b565b61011991906101c2565b5060008081819054906101000a900460ff168092919061013890610203565b91906101000a81548160ff021916908360ff160217905550506000600181819054906101000a900460ff168092919061017090610203565b91906101000a81548160ff021916908360ff16021790555050565b6000610196826101f6565b91506101a1836101f6565b92508260ff038211156101b7576101b661022d565b5b828201905092915050565b60006101cd826101f6565b91506101d8836101f6565b9250828210156101eb576101ea61022d565b5b828203905092915050565b600060ff82169050919050565b600061020e826101f6565b915060ff8214156102225761022161022d565b5b600182019050919050565b7f4e487b7100000000000000000000000000000000000000000000000000000000600052601160045260246000fdfea26469706673582212206b98a0646d837ac610855fbca7986527e0f275e1a61ebfe7a7c859ecb008a02864736f6c63430008070033",
			"opcodes": "PUSH1 0x80 PUSH1 0x40 MSTORE PUSH1 0x1 PUSH1 0x0 DUP1 PUSH2 0x100 EXP DUP2 SLOAD DUP2 PUSH1 0xFF MUL NOT AND SWAP1 DUP4 PUSH1 0xFF AND MUL OR SWAP1 SSTORE POP PUSH1 0x2 PUSH1 0x0 PUSH1 0x1 PUSH2 0x100 EXP DUP2 SLOAD DUP2 PUSH1 0xFF MUL NOT AND SWAP1 DUP4 PUSH1 0xFF AND MUL OR SWAP1 SSTORE POP PUSH1 0x3 PUSH1 0x0 PUSH1 0x2 PUSH2 0x100 EXP DUP2 SLOAD DUP2 PUSH1 0xFF MUL NOT AND SWAP1 DUP4 PUSH1 0xFF AND MUL OR SWAP1 SSTORE POP CALLVALUE DUP1 ISZERO PUSH2 0x63 JUMPI PUSH1 0x0 DUP1 REVERT JUMPDEST POP PUSH2 0x292 DUP1 PUSH2 0x73 PUSH1 0x0 CODECOPY PUSH1 0x0 RETURN INVALID PUSH1 0x80 PUSH1 0x40 MSTORE CALLVALUE DUP1 ISZERO PUSH2 0x10 JUMPI PUSH1 0x0 DUP1 REVERT JUMPDEST POP PUSH1 0x4 CALLDATASIZE LT PUSH2 0x57 JUMPI PUSH1 0x0 CALLDATALOAD PUSH1 0xE0 SHR DUP1 PUSH4 0xD28E34A EQ PUSH2 0x5C JUMPI DUP1 PUSH4 0x23EED3C5 EQ PUSH2 0x66 JUMPI DUP1 PUSH4 0x6ADE9DA6 EQ PUSH2 0x70 JUMPI DUP1 PUSH4 0xADE7621D EQ PUSH2 0x7A JUMPI DUP1 PUSH4 0xAF7B5BAA EQ PUSH2 0x84 JUMPI JUMPDEST PUSH1 0x0 DUP1 REVERT JUMPDEST PUSH2 0x64 PUSH2 0x8E JUMP JUMPDEST STOP JUMPDEST PUSH2 0x6E PUSH2 0x90 JUMP JUMPDEST STOP JUMPDEST PUSH2 0x78 PUSH2 0x92 JUMP JUMPDEST STOP JUMPDEST PUSH2 0x82 PUSH2 0xD5 JUMP JUMPDEST STOP JUMPDEST PUSH2 0x8C PUSH2 0xD7 JUMP JUMPDEST STOP JUMPDEST JUMP JUMPDEST JUMP JUMPDEST PUSH1 0x0 PUSH1 0x1 SWAP1 SLOAD SWAP1 PUSH2 0x100 EXP SWAP1 DIV PUSH1 0xFF AND PUSH1 0x0 DUP1 SLOAD SWAP1 PUSH2 0x100 EXP SWAP1 DIV PUSH1 0xFF AND PUSH2 0xBA SWAP2 SWAP1 PUSH2 0x18B JUMP JUMPDEST PUSH1 0x0 DUP1 PUSH2 0x100 EXP DUP2 SLOAD DUP2 PUSH1 0xFF MUL NOT AND SWAP1 DUP4 PUSH1 0xFF AND MUL OR SWAP1 SSTORE POP JUMP JUMPDEST JUMP JUMPDEST PUSH1 0x0 PUSH1 0x2 SWAP1 SLOAD SWAP1 PUSH2 0x100 EXP SWAP1 DIV PUSH1 0xFF AND PUSH1 0x0 PUSH1 0x1 SWAP1 SLOAD SWAP1 PUSH2 0x100 EXP SWAP1 DIV PUSH1 0xFF AND PUSH1 0x0 DUP1 SLOAD SWAP1 PUSH2 0x100 EXP SWAP1 DIV PUSH1 0xFF AND PUSH2 0x10F SWAP2 SWAP1 PUSH2 0x18B JUMP JUMPDEST PUSH2 0x119 SWAP2 SWAP1 PUSH2 0x1C2 JUMP JUMPDEST POP PUSH1 0x0 DUP1 DUP2 DUP2 SWAP1 SLOAD SWAP1 PUSH2 0x100 EXP SWAP1 DIV PUSH1 0xFF AND DUP1 SWAP3 SWAP2 SWAP1 PUSH2 0x138 SWAP1 PUSH2 0x203 JUMP JUMPDEST SWAP2 SWAP1 PUSH2 0x100 EXP DUP2 SLOAD DUP2 PUSH1 0xFF MUL NOT AND SWAP1 DUP4 PUSH1 0xFF AND MUL OR SWAP1 SSTORE POP POP PUSH1 0x0 PUSH1 0x1 DUP2 DUP2 SWAP1 SLOAD SWAP1 PUSH2 0x100 EXP SWAP1 DIV PUSH1 0xFF AND DUP1 SWAP3 SWAP2 SWAP1 PUSH2 0x170 SWAP1 PUSH2 0x203 JUMP JUMPDEST SWAP2 SWAP1 PUSH2 0x100 EXP DUP2 SLOAD DUP2 PUSH1 0xFF MUL NOT AND SWAP1 DUP4 PUSH1 0xFF AND MUL OR SWAP1 SSTORE POP POP JUMP JUMPDEST PUSH1 0x0 PUSH2 0x196 DUP3 PUSH2 0x1F6 JUMP JUMPDEST SWAP2 POP PUSH2 0x1A1 DUP4 PUSH2 0x1F6 JUMP JUMPDEST SWAP3 POP DUP3 PUSH1 0xFF SUB DUP3 GT ISZERO PUSH2 0x1B7 JUMPI PUSH2 0x1B6 PUSH2 0x22D JUMP JUMPDEST JUMPDEST DUP3 DUP3 ADD SWAP1 POP SWAP3 SWAP2 POP POP JUMP JUMPDEST PUSH1 0x0 PUSH2 0x1CD DUP3 PUSH2 0x1F6 JUMP JUMPDEST SWAP2 POP PUSH2 0x1D8 DUP4 PUSH2 0x1F6 JUMP JUMPDEST SWAP3 POP DUP3 DUP3 LT ISZERO PUSH2 0x1EB JUMPI PUSH2 0x1EA PUSH2 0x22D JUMP JUMPDEST JUMPDEST DUP3 DUP3 SUB SWAP1 POP SWAP3 SWAP2 POP POP JUMP JUMPDEST PUSH1 0x0 PUSH1 0xFF DUP3 AND SWAP1 POP SWAP2 SWAP1 POP JUMP JUMPDEST PUSH1 0x0 PUSH2 0x20E DUP3 PUSH2 0x1F6 JUMP JUMPDEST SWAP2 POP PUSH1 0xFF DUP3 EQ ISZERO PUSH2 0x222 JUMPI PUSH2 0x221 PUSH2 0x22D JUMP JUMPDEST JUMPDEST PUSH1 0x1 DUP3 ADD SWAP1 POP SWAP2 SWAP1 POP JUMP JUMPDEST PUSH32 0x4E487B7100000000000000000000000000000000000000000000000000000000 PUSH1 0x0 MSTORE PUSH1 0x11 PUSH1 0x4 MSTORE PUSH1 0x24 PUSH1 0x0 REVERT INVALID LOG2 PUSH5 0x6970667358 0x22 SLT KECCAK256 PUSH12 0x98A0646D837AC610855FBCA7 SWAP9 PUSH6 0x27E0F275E1A6 0x1E 0xBF 0xE7 0xA7 0xC8 MSIZE 0xEC 0xB0 ADDMOD LOG0 0x28 PUSH5 0x736F6C6343 STOP ADDMOD SMOD STOP CALLER "
		},
		"gasEstimates": {
			"creation": {
				"codeDepositCost": "131600",
				"executionCost": "73078",
				"totalCost": "204678"
			},
			"external": {
				"arithmeticExample()": "infinite",
				"assignmentExample()": "infinite",
				"comparsionExample()": "144",
				"conditionalExample()": "122",
				"logicalExample()": "188"
			}
		},
		"methodIdentifiers": {
			"arithmeticExample()": "af7b5baa",
			"assignmentExample()": "6ade9da6",
			"comparsionExample()": "23eed3c5",
			"conditionalExample()": "0d28e34a",
			"logicalExample()": "ade7621d"
		}
	},
	"abi": [
		{
			"inputs": [],
			"name": "arithmeticExample",
			"outputs": [],
			"stateMutability": "nonpayable",
			"type": "function"
		},
		{
			"inputs": [],
			"name": "assignmentExample",
			"outputs": [],
			"stateMutability": "nonpayable",
			"type": "function"
		},
		{
			"inputs": [],
			"name": "comparsionExample",
			"outputs": [],
			"stateMutability": "nonpayable",
			"type": "function"
		},
		{
			"inputs": [],
			"name": "conditionalExample",
			"outputs": [],
			"stateMutability": "nonpayable",
			"type": "function"
		},
		{
			"inputs": [],
			"name": "logicalExample",
			"outputs": [],
			"stateMutability": "nonpayable",
			"type": "function"
		}
	]
}